:020000040000FA
:040000003AEF00F0E3
:100008004E82FACF0FF0FBCF10F0F2AC0EEF00F0FB
:1000180010EF00F034EF00F0A0A215EF00F017EF9A
:1000280000F022EF00F0A1A21CEF00F01EEF00F09C
:1000380022EF00F015EC0DF034EF00F09DA227EF51
:1000480000F029EF00F034EF00F09EA22EEF00F050
:1000580030EF00F034EF00F03DEC0DF034EF00F03D
:1000680010C0FBFF0FC0FAFF4E92110098EF0BF083
:100078001450800B1D6E145014241F6E13AE47EFDE
:1000880000F049EF00F04AEF00F01F801F50D8B48D
:1000980050EF00F052EF00F067EF00F01F28D8A4EF
:1000A80058EF00F05AEF00F062EF00F0000E116E0A
:1000B800000E126E000E136E000E146E138E000EDC
:1000C800146E6FEF00F0000E116E000E126E000E2F
:1000D800136E000E146E1850800B1E6E1D501E18E5
:1000E800D8B479EF00F07BEF00F07CEF00F01D8CC6
:1000F800185018241E6E17AE84EF00F086EF00F03B
:1001080087EF00F01E801E50D8B48DEF00F08FEFFF
:1001180000F0A4EF00F01E28D8A495EF00F097EFA8
:1001280000F09FEF00F0000E156E000E166E000E28
:10013800176E000E186E178E000E186EACEF00F0DA
:10014800000E156E000E166E000E176E000E186E5D
:100158001F501E5CD8B0B3EF00F0B5EF00F0DCEF35
:1001680000F01DACBAEF00F0BCEF00F0BEEF00F0FD
:10017800800E1D1A1FC020F01EC01FF020C01EF0E8
:1001880011C020F015C011F020C015F012C020F0E9
:1001980016C012F020C016F013C020F017C013F0DC
:1001A80020C017F014C020F018C014F020C018F0B8
:1001B800000E206E1F501EC019F01A6A195E000E3C
:1001C8001A5A1ABEF1EF00F01A5009E11A0E195C1A
:1001D800D8A0F1EF00F0F3EF00F02AEF01F0115092
:1001E800121013101410D8A4FCEF00F0FFEF00F069
:1001F800010E00EF01F0000E206E000E116E000ED1
:10020800126E000E136E000E146E1EC01FF033EF38
:1002180001F020A012EF01F014EF01F01AEF01F045
:10022800D89020300109206E1CEF01F0D8902032C0
:1002380011A021EF01F023EF01F024EF01F0208E4F
:10024800143414321332123211321F2A1E501F5C1A
:10025800D8A031EF01F033EF01F00DEF01F01DBC34
:1002680038EF01F03AEF01F07AEF01F01F50D8A40F
:1002780040EF01F042EF01F04CEF01F0000E116E7B
:10028800000E126E000E136E000E146E9BEF02F03D
:1002980015501126165012221750132218501422E6
:1002A80014A059EF01F05BEF01F007EF02F020A076
:1002B80060EF01F062EF01F068EF01F0D8902030B4
:1002C8000109206E6AEF01F0D890203211A06FEF7B
:1002D80001F071EF01F072EF01F0208E1434143246
:1002E8001332123211321F2A07EF02F01550115C37
:1002F80016501258175013581450800A196E185077
:10030800800A1958D8B08BEF01F08DEF01F0B8EFE3
:1003180001F01150155C196E125016581A6E1350D0
:1003280017581B6E145018581C6EFF0E1924116EA6
:10033800FF0E1A20126EFF0E1B20136EFF0E1C20DC
:10034800146E800E1D1A206C2050D8A4AEEF01F058
:10035800B0EF01F0C0EF01F0010E1126000E1222DD
:1003680013221422C0EF01F01550115E1650125AD4
:100378001750135A1850145A115012101310141001
:10038800D8A4C9EF01F0CBEF01F000EF02F0205044
:10039800D8A4D1EF01F0D3EF01F000EF02F0000E86
:1003A800116E000E126E000E136E000E146E9BEF8F
:1003B80002F0D890113612361336143620AEE7EF15
:1003C80001F0E9EF01F0EAEF01F0118020A0EFEF72
:1003D80001F0F1EF01F0F5EF01F0D8802036F7EFEA
:1003E80001F0D89020361F50D8B4FDEF01F0FFEF90
:1003F80001F000EF02F01F0613AE05EF02F007EF61
:1004080002F0DDEF01F0000E1E6E20AE0EEF02F0DE
:1004180010EF02F028EF02F020C019F07F0E191635
:10042800D8B419EF02F01BEF02F01FEF02F0010E33
:100438001E6E28EF02F011A024EF02F026EF02F062
:1004480028EF02F01BEF02F01E50D8B42EEF02F096
:1004580030EF02F05BEF02F0010E1126000E1222BF
:100468001322142214A03BEF02F03DEF02F05BEFE1
:1004780002F011C019F012C01AF013C01BF014C01A
:100488001CF01C341C321B321A32193219C011F0FC
:100498001AC012F01BC013F01CC014F01F28D8B4E7
:1004A80058EF02F05AEF02F05BEF02F01F2A1F2804
:1004B800D8B461EF02F063EF02F06BEF02F01F5067
:1004C800D8A469EF02F06BEF02F07DEF02F0000EA6
:1004D800116E000E126E000E136E000E146E1F5079
:1004E800D8A479EF02F07BEF02F07DEF02F0000E66
:1004F8001D6E1FA082EF02F084EF02F087EF02F07A
:10050800138E88EF02F0139ED8901F30146E1DAE24
:1005180090EF02F092EF02F093EF02F0148E11C008
:1005280011F012C012F013C013F014C014F012002E
:100538002250800B2B6E22502224316E21AEA7EF61
:1005480002F0A9EF02F0AAEF02F031803150D8B4DE
:10055800B0EF02F0B2EF02F0C5EF02F03128D8A4F4
:10056800B8EF02F0BAEF02F0C2EF02F0000E1F6E11
:10057800000E206E000E216E000E226E218ECDEF31
:1005880002F0000E1F6E000E206E000E216E000E8F
:10059800226E2650800B2B1A26502624306E25AE4C
:1005A800D8EF02F0DAEF02F0DBEF02F030803050E3
:1005B800D8B4E1EF02F0E3EF02F0F6EF02F03028F2
:1005C800D8A4E9EF02F0EBEF02F0F3EF02F0000E2F
:1005D800236E000E246E000E256E000E266E258EEC
:1005E800FEEF02F0000E236E000E246E000E256E44
:1005F800000E266E3050D8B404EF03F006EF03F077
:100608000EEF03F03150D8A40CEF03F00EEF03F017
:1006180018EF03F0000E1F6E000E206E000E216E04
:10062800000E226EB0EF04F025501F02F3CF36F013
:10063800F4CF37F036502C6E2D6A2E6A2F6A375059
:10064800326E336A346A356A24502002F3CF36F0AA
:10065800F4CF37F036502C26000E2D222E222F22D2
:1006680037503226000E33223422352223502102FD
:10067800F3CF36F0F4CF37F036502C26000E2D226B
:100688002E222F2237503226000E332234223522D2
:100698002EC02FF02DC02EF02CC02DF02C6A235028
:1006A8002002F3CF36F0F4CF37F036502C263750EF
:1006B8002D22000E2E22000E2F2224501F02F3CFCF
:1006C80036F0F4CF37F036502C2637502D22000E56
:1006D8002E22000E2F222EC02FF02DC02EF02CC05F
:1006E8002DF02C6A23501F02F3CF36F0F4CF37F0E9
:1006F80036502C2637502D22000E2E22000E2F2287
:1007080025502002F3CF36F0F4CF37F0365032269A
:1007180037503322000E3422000E35222450210295
:10072800F3CF36F0F4CF37F0365032263750332235
:10073800000E3422000E352225502102F3CF36F068
:10074800F4CF37F03650276E3750286E296A2A6A58
:1007580029C02AF028C029F027C028F0276A275086
:10076800322628503322295034222A5035222CC0D0
:1007780027F02DC028F02EC029F02FC02AF0190E1E
:10078800CBEF03F0D8902A32293228322732E82ECC
:10079800C6EF03F02750322628503322295034223E
:1007A8002A5035222EC02FF02DC02EF02CC02DF04F
:1007B8002C6A305031C027F0286A2726000E2822DC
:1007C800820E2724366EFF0E2820376E01EF04F0C4
:1007D800D89032363336343635362FAEF6EF03F04E
:1007E800F8EF03F0F9EF03F03280D8902C362D366D
:1007F8002E362F363606D8A0370634AE06EF04F06C
:1008080008EF04F0ECEF03F0000E306E2FAE0FEFA0
:1008180004F011EF04F035EF04F0FF0E2C14276EEE
:10082800FF0E2D14286EFF0E2E14296E7F0E2F1426
:100838002A6E2750281029102A10D8B426EF04F061
:1008480028EF04F02CEF04F0010E306E35EF04F0C1
:1008580032A031EF04F033EF04F035EF04F028EF65
:1008680004F03050D8B43BEF04F03DEF04F061EFF2
:1008780004F0010E3226000E33223422352235A030
:1008880048EF04F04AEF04F061EF04F032C027F0BB
:1008980033C028F034C029F035C02AF02A342A326F
:1008A80029322832273227C032F028C033F029C035
:1008B80034F02AC035F0364A372A37BE6CEF04F0D8
:1008C800375008E13628D8A06CEF04F06EEF04F03A
:1008D80078EF04F0000E326E000E336E800E346E28
:1008E8007F0E356EA6EF04F037BE85EF04F0375063
:1008F80006E13604D8B083EF04F085EF04F091EFF9
:1009080004F0000E326E000E336E000E346E000ED0
:10091800356E000E2B6EA6EF04F036C031F0FF0ED8
:100928003216FF0E33167F0E3416000E351631A020
:10093800A0EF04F0A2EF04F0A3EF04F0348ED890F7
:100948003130356E2B50351232C01FF033C020F0D5
:1009580034C021F035C022F0120000016351800B31
:100968006C6F63516325736F62AFBDEF04F0BFEF27
:1009780004F0C0EF04F073817351D8B4C6EF04F0EB
:10098800C8EF04F0DDEF04F07329D8A4CEEF04F02B
:10099800D0EF04F0D8EF04F0000E606F000E616F26
:1009A800000E626F000E636F628F000E636FE5EFDB
:1009B80004F0000E606F000E616F000E626F000E93
:1009C800636F6751800B6C1B67516725746F66AF47
:1009D800F0EF04F0F2EF04F0F3EF04F074817451D7
:1009E800D8B4F9EF04F0FBEF04F010EF05F0742928
:1009F800D8A401EF05F003EF05F00BEF05F0000EAA
:100A0800646F000E656F000E666F000E676F668F6D
:100A1800000E676F18EF05F0000E646F000E656F2B
:100A2800000E666F000E676F6451651166116711DD
:100A3800D8A421EF05F023EF05F03BEF05F0000EF9
:100A4800606F000E616F000E626F000E636F800EA4
:100A580062137F0E63136C51631360C060F061C052
:100A680061F062C062F063C063F07EEF06F073511C
:100A7800D8A441EF05F043EF05F04DEF05F0000E67
:100A8800606F000E616F000E626F000E636F7EEF85
:100A980006F0745173C038F0396A385E000E395A5E
:100AA8007F0E38246D6F000E39206E6F60C068F0BD
:100AB80061C069F062C06AF063C06BF0000E606FDD
:100AC800000E616F000E626F000E636F000E6F6F95
:100AD800000E706F000E716F000E726F000E746F53
:100AE800AEEF05F07451D8B47CEF05F07EEF05F059
:100AF80095EF05F0D890683769376A376B37D89023
:100B0800603761376237633772AF8DEF05F08FEF6B
:100B180005F090EF05F06081D8906F377037713726
:100B280072376451685D6551695966516A596751F0
:100B38006B59D8A0A2EF05F0A4EF05F0ADEF05F0D2
:100B4800728D6451685F6551695B66516A5B675174
:100B58006B5B742B190E7465B4EF05F0B6EF05F0F6
:100B680076EF05F0685169116A116B11D8B4BFEFBF
:100B780005F0C1EF05F0D9EF05F06F81D9EF05F069
:100B8800D890603761376237633772AFCEEF05F0C0
:100B9800D0EF05F0D1EF05F06081D8906F3770374E
:100BA800713772376D07D8A06E0762AFDEEF05F0B8
:100BB800E0EF05F0C4EF05F0000E746F72AFE7EFD9
:100BC80005F0E9EF05F00DEF06F0FF0E6F15386E32
:100BD800FF0E7015396EFF0E71153A6E7F0E721585
:100BE8003B6E385039103A103B10D8B4FEEF05F080
:100BF80000EF06F004EF06F0010E746F0DEF06F03B
:100C080060A109EF06F00BEF06F00DEF06F000EF1C
:100C180006F07451D8B413EF06F015EF06F039EF6B
:100C280006F0010E6027000E61236223632363A18F
:100C380020EF06F022EF06F039EF06F060C038F03A
:100C480061C039F062C03AF063C03BF03B343B32DC
:100C58003A323932383238C060F039C061F03AC0BF
:100C680062F03BC063F06D4B6E2B6EBF44EF06F035
:100C78006E5108E16D29D8A044EF06F046EF06F062
:100C880051EF06F0000E6E6F6D69000E606F000E7A
:100C9800616F000E626F000E636F6EBF5EEF06F04D
:100CA8006E5106E16D05D8B05CEF06F05EEF06F018
:100CB8006CEF06F0000E6E6F000E6D6F000E606F29
:100CC800000E616F000E626F000E636F000E6C6F96
:100CD8006DC073F073A173EF06F075EF06F078EF4F
:100CE80006F0628F79EF06F0629FD8907331636FD8
:100CF8002FEF05F01200196E1950D8B486EF06F0E0
:100D080088EF06F0AAEF06F014BE8FEF06F08DEF1D
:100D180006F0AAEF06F011C015F012C016F013C0C5
:100D280017F014C018F0151E161E171E181E152AC7
:100D3800000E16221722182215C01BF016C01CF030
:100D480017C01DF018C01EF0B2EF06F011C01BF05E
:100D580012C01CF013C01DF014C01EF01150121068
:100D680013101410D8A4BBEF06F0BDEF06F0C7EFC0
:100D780006F0000E116E000E126E000E136E000EBD
:100D8800146E58EF07F0960E1A6ED1EF06F01A2A75
:100D9800D8901E321D321C321B32000E1B14156EE9
:100DA800000E1C14166E000E1D14176EFE0E1E1477
:100DB800186E1550161017101810D8A4E6EF06F084
:100DC800E8EF06F0CBEF06F0F6EF06F01A2A010E70
:100DD8001B26000E1C221D221E22D8901E321D32F8
:100DE8001C321B32000E1B14156E000E1C14166EDE
:100DF800000E1D14176EFF0E1E14186E15501610D7
:100E080017101810D8A40BEF07F00DEF07F0EAEF52
:100E180006F015EF07F01A06D8901B361C361D365B
:100E28001E361DBE1AEF07F01CEF07F024EF07F07F
:100E3800020E1A6022EF07F024EF07F00FEF07F019
:100E48001AB029EF07F02BEF07F02CEF07F01D9EE3
:100E5800D8901A321AC015F0166A176A186A15C09F
:100E680018F0176A166A156A15501B1216501C12CC
:100E780017501D1218501E121950D8B446EF07F01B
:100E880048EF07F050EF07F014BE4FEF07F04DEFB3
:100E980007F050EF07F01E8E1BC011F01CC012F0B7
:100EA8001DC013F01EC014F01200D3EC0CF0A10EFC
:100EB800126E000E136EFCEC0BF09F0E126E000EFD
:100EC800136EE2EC0BF09D0E126E000E136E16EC14
:100ED8000CF09B0E126E000E136E30EC0CF0000E30
:100EE8000001766F000E756F2EEC08F075C087F064
:100EF80076C088F077C089F078C08AF046EC09F0AF
:100F080087C0ADF088C0AEF0000E0001766F080E05
:100F1800756F2EEC08F075C087F076C088F077C042
:100F280089F078C08AF046EC09F087C0ABF088C039
:100F3800ACF0000E0001766F010E756F2EEC08F014
:100F480075C087F076C088F077C089F078C08AF0DD
:100F580046EC09F087C0A7F088C0A8F0000E000191
:100F6800766F090E756F2EEC08F075C087F076C0A5
:100F780088F077C089F078C08AF046EC09F087C01D
:100F8800A9F088C0AAF0ADC011F0AEC012F01FECF5
:100F98000DF024EC0DF048EC0DF0030E116E000E70
:100FA800AAEC0AF0000E0001766F000E756F2EECA9
:100FB80008F075C087F076C088F077C089F078C0EF
:100FC8008AF046EC09F087C0ADF088C0AEF0000E9C
:100FD8000001766F080E756F2EEC08F075C087F06B
:100FE80076C088F077C089F078C08AF046EC09F0BE
:100FF80087C0ABF088C0ACF0000E0001766F010E20
:10100800756F2EEC08F075C087F076C088F077C051
:1010180089F078C08AF046EC09F087C0A7F088C04C
:10102800A8F0000E0001766F090E756F2EEC08F01F
:1010380075C087F076C088F077C089F078C08AF0EC
:1010480046EC09F087C0A9F088C0AAF0D6EF07F0EF
:101058003AEF00F000017551E0EC0CF08EEC0CF06A
:1010680015C081F016C082F0000E236E000E246EAB
:10107800A00E256E400E266E81C011F082C012F0BF
:10108800136A146A000E7FEC06F011C01FF012C03C
:1010980020F013C021F014C022F09CEC02F01FC015
:1010A8007DF020C07EF021C07FF022C080F0000ECD
:1010B800236E000E246E7A0E256E440E266E7DC0B9
:1010C8001FF07EC020F07FC021F080C022F09CEC91
:1010D80002F01FC060F020C061F021C062F022C0A1
:1010E80063F0000E0001646F000E656F800E666F7E
:1010F800440E676FB1EC04F060C079F061C07AF01B
:1011080062C07BF063C07CF0000E156E000E166E98
:10111800FA0E176EC30E186E79C011F07AC012F06D
:101128007BC013F07CC014F03CEC00F011C060F000
:1011380012C061F013C062F014C063F0000E000129
:10114800646F000E656F200E666F410E676FB1EC1D
:1011580004F060C083F061C084F062C085F063C0B1
:1011680086F083C075F084C076F085C077F086C0BD
:1011780078F012004C504D10D8A4C5EF08F0C7EF16
:1011880008F0CBEF08F0B3EC0CF045EF09F04A0497
:101198004B10D8A4D2EF08F0D4EF08F0EFEF08F026
:1011A800B3EC0CF0000E8B6E000E896E8B8248C07B
:1011B80001F049C002F0000E046E640E036E48ECA4
:1011C8000AF001C009F002C00AF0CAEC09F04A4A64
:1011D8004B2A45EF09F0020E4A184B10D8A4F7EF36
:1011E80008F0F9EF08F022EF09F0B3EC0CF0000E6C
:1011F8008B6E000E896E8B8048C001F049C002F0EA
:10120800000E046E0A0E036E48EC0AF001C00DF0E1
:1012180002C00EF00DC001F00EC002F0000E046E08
:101228000A0E036E02EC0BF001C009F002C00AF0CE
:10123800CAEC09F04CEC0DF0EBEF08F0030E4A187D
:101248004B10D8A42AEF09F02CEF09F045EF09F06C
:10125800B3EC0CF0000E8B6E000E8B6E898C48C0C0
:1012680001F049C002F0000E046E0A0E036E02EC93
:101278000BF001C009F002C00AF0CAEC09F0EBEF6C
:1012880008F01200000189358A353D6E3D50D8A41A
:1012980050EF09F052EF09F05CEF09F0000E876F8C
:1012A800000E886F000E896F000E8A6FC9EF09F073
:1012B80087C08BF088C08CF089C08DF08AC08EF012
:1012C800200E6CEF09F0D8908E338D338C338B332E
:1012D800E82E67EF09F08B513C6E898FFF0E871758
:1012E800FF0E8817FF0E8917000E8A17960E3D5EAF
:1012F8003DBE83EF09F081EF09F099EF09F03D5009
:10130800800A970FD8B08BEF09F08DEF09F08FEFB7
:1013180009F052EF09F0D8908A338933883387333C
:101328003D3E8FEF09F0B1EF09F01F0E3D649FEFCE
:1013380009F0A1EF09F0A9EF09F052EF09F0D890F0
:101348008737883789378A373D063D50D8A4AFEFAD
:1013580009F0B1EF09F0A3EF09F03C50D8B4B7EFAA
:1013680009F0B9EF09F0C1EF09F08A1F891F881F3A
:10137800876D000E882389238A2387C087F088C059
:1013880088F089C089F08AC08AF0120011EF0AF04B
:101398008A8E8A8A8A868A848A808A8C47EF0AF0AB
:1013A8008A8A8A8647EF0AF08A8E8A8A8A888A8099
:1013B8008A8447EF0AF08A8E8A8A8A888A868A848B
:1013C80047EF0AF08A8A8A868A8C8A8847EF0AF069
:1013D8008A8E8A8C8A888A868A8447EF0AF08A8E5F
:1013E8008A8C8A888A868A848A8047EF0AF08A8E5D
:1013F8008A8A8A8647EF0AF08A8E8A8A8A868A8447
:101408008A808A8C8A8847EF0AF08A8E8A8A8A8636
:101418008A848A8C8A8847EF0AF009C00BF00AC0D0
:101428000CF00C50000AD8B41CEF0AF047EF0AF091
:101438000B50000AD8B4CCEF09F0010AD8B4D4EFA5
:1014480009F0030AD8B4D8EF09F0010AD8B4DFEFDD
:1014580009F0070AD8B4E6EF09F0010AD8B4ECEFAE
:1014680009F0030AD8B4F3EF09F0010AD8B4FBEF86
:1014780009F00F0AD8B400EF0AF0010AD8B409EF4E
:101488000AF047EF0AF01200000E066E04BE51EF94
:101498000AF04FEF0AF057EF0AF0036C041ED8B0B9
:1014A800042A010E066E02BE5EEF0AF05CEF0AF037
:1014B80064EF0AF0016C021ED8B0022A010E061A67
:1014C800000E086E000E076E03500410D8B46FEFBC
:1014D8000AF071EF0AF099EF0AF0010E056E79EF44
:1014E8000AF0D89003360436052A04AE7EEF0AF0D7
:1014F80080EF0AF075EF0AF0D890073608360350E7
:10150800015C04500258D8A08CEF0AF08EEF0AF064
:1015180093EF0AF00350015E0450025A0780D890F6
:1015280004320332052E80EF0AF00650D8B49FEF3C
:101538000AF0A1EF0AF0A5EF0AF0076C081ED8B070
:10154800082A07C001F008C002F01200146E000E4D
:10155800896E000E896E000E8D6E000E8D6E000E67
:101568008D6E000E896EBFEF0AF08D84E4EF0AF0ED
:10157800898EE4EF0AF01450126E136A1350000AB1
:10158800D8B4C9EF0AF0E4EF0AF01250000AD8B450
:10159800B9EF0AF0010AD8B4BCEF0AF0030AD8B4CC
:1015A80001EF0BF0E4EF0AF08D8201EF0BF0898870
:1015B80001EF0BF0898A01EF0BF08D8001EF0BF042
:1015C8001150126E136A1350000AD8B4EEEF0AF0E5
:1015D80001EF0BF01250000AD8B4E1EF0AF0010A4B
:1015E800D8B4DBEF0AF0030AD8B4DEEF0AF0010A38
:1015F800D8B4D8EF0AF001EF0BF01200000E066E17
:1016080002BE0BEF0BF009EF0BF011EF0BF0016CC2
:10161800021ED8B0022A010E066E04BE18EF0BF0A7
:1016280016EF0BF01CEF0BF0036C041ED8B0042A65
:1016380003500410D8B423EF0BF025EF0BF049EF5B
:101648000BF0010E056E2DEF0BF0D8900336043623
:10165800052A04AE32EF0BF034EF0BF029EF0BF054
:101668000350015C04500258D8A03DEF0BF03FEF47
:101678000BF043EF0BF00350015E0450025AD89070
:1016880004320332052E34EF0BF00650D8B44FEF76
:101698000BF051EF0BF055EF0BF0016C021ED8B0B8
:1016A800022A01C001F002C002F012008344E84699
:1016B800030B010B036E046A3E50031809E13F5007
:1016C8000418D8B46AEF0BF06CEF0BF095EF0BF041
:1016D800404A412A320E40184110D8A476EF0BF048
:1016E80078EF0BF095EF0BF03E503F10D8A47FEF4A
:1016F8000BF081EF0BF087EF0BF0000E026E010E7E
:10170800016E38EC0DF083CF03F0060E046ED8900E
:101718000332042E8BEF0BF0010E031603503E6EBE
:101728003F6A8350835012009C0EF66E1A0EF76EB5
:10173800000EF86E0900F5CFAFF00900F5CFB0F054
:10174800880EF66E1A0EF76E000EF86E00EE4AF06E
:1017580010EE04F00900F5CFEEFFE550E150FAE194
:1017680000EE8FF0140EEE6AE806FDE100EE3EF0A2
:10177800080EEE6AE806FDE14E904E92000EF86EF5
:10178800000159EF07F0000E8D6E000E8C6E000EF2
:10179800896E000E8A6E000E8B6E000E966E0F0E0E
:1017A800926E000E936EFC0E946EF80E956E7E6827
:1017B8001F0E7F6E000E7C6EF18E1200030E0BEC76
:1017C8000DF0146E020E0BEC0DF0156E1550176E21
:1017D800166A14501614186E000E1714196E12C0DB
:1017E800D9FF13C0DAFF18C0DEFF19C0DDFF1200F1
:1017F800010E0BEC0DF0146E000E0BEC0DF0156ED7
:101808001550176E166A14501614186E000E171419
:10181800196E12C0D9FF13C0DAFF18C0DEFF19C055
:10182800DDFF1200050E0BEC0DF0146E040E0BEC30
:101838000DF0156E1550176E166A14501614186EA2
:10184800000E1714196E12C0D9FF13C0DAFF18C0A2
:10185800DEFF19C0DDFF1200070E0BEC0DF0146E51
:10186800060E0BEC0DF0156E1550176E166A145017
:101878001614186E000E1714196E12C0D9FF13C073
:10188800DAFF18C0DEFF19C0DDFF12000001A35106
:10189800A411D8B452EF0CF054EF0CF061EF0CF037
:1018A80002D861EF0CF00500FA6EA351FD6EA45149
:1018B800FE6EF850FF6EFA50120012000001A5519A
:1018C800A611D8B46AEF0CF06CEF0CF079EF0CF0BD
:1018D80002D879EF0CF00500FA6EA551FD6EA651FD
:1018E800FE6EF850FF6EFA5012001200B1A47FEF9E
:1018F8000CF081EF0CF089EF0CF0B1900250B36E50
:1019080001C0B2FFB1808DEF0CF00250B36E01C080
:10191800B2FF120046EC0DF0F7EC0CF00009D8B459
:1019280098EF0CF09AEF0CF090EF0CF001EC0DF042
:1019380011C015F012C016F01200B368060EB26E90
:10194800B2CF46F0B3CF47F0A192A082B40E116E89
:10195800160E126E29EC0DF0010EB16E1200000E7B
:101968008A6E000E8A6E000E8A6E000E8A6E000E57
:101978008A6E000E8A6E000E8A6E000E8A6E120043
:101988003E0ECB6E000ECC6E9E929D82820E116E24
:101998001A0E126E2EEC0DF0050ECA6E12004AECED
:1019A8000DF0C7EC0BF033EC0DF0A1EC0CF0C4EC2F
:1019B8000CF0ECEC0CF01200126E12C011F0114693
:1019C8001146C2501118C30B1118C26EC280120002
:1019D800010EC26E000EC16E070EC06E000EC36E01
:1019E800000EC46E1200C2A2FCEF0CF0FFEF0CF068
:1019F800010E00EF0DF0000E1200C450146E136AB1
:101A0800C3501324116E000E1420126E1200116EB2
:101A180011C0A9FFA69CA69EA68000F000F0A850C1
:101A28001200A19246C001F047C002F07AEC0CF017
:101A38004AEC0CF0120011C048F012C049F0120034
:101A4800000E4D6E010E4C6E120011C0A3F012C0B4
:101A5800A4F0120011C0A5F012C0A6F01200300EBA
:101A6800D36E000E9B6E120001C044F002C045F018
:101A780012009E9262EC0CF01200BEEC08F012000C
:101A880001000100C2821200CA841200D09E120016
:061A98008A841200010027
:020000040020DA
:08000000FFFFFFFFFFFFFFFF00
:020000040030CA
:0E000000FF081F1EFF8B85FF0FC00FE00F4093
:00000001FF
